:1000000012C036C062C015C014C013C012C011C0E7
:1000100010C00FC00EC00DC00CC00BC00AC009C07C
:1000200008C007C006C011241FBECFEDCDBF15D03C
:1000300079C0E6CFF8948CE087BB80E281BB8CE28C
:1000400082BB89E085BF80EC8BBFA89581B58861B4
:1000500081BD89E281BD78940895ECDF88B318BA38
:10006000A89583ED90E30197F1F700C00000F6CF6B
:100070001F920F920FB60F9211248F939F93AF93FD
:10008000BF93F89489E698E10197F1F700C000006A
:10009000829902C084E001C088E088BB8FE798E3C2
:1000A000A1E081509040A040E1F700C000008FEF38
:1000B0008ABF88B318BA7894BF91AF919F918F91FE
:1000C0000F900FBE0F901F9018951F920F920FB6B2
:1000D0000F9211248F939F93AF93BF93F89489E667
:1000E00098E10197F1F700C00000839904C082995C
:1000F00002C088E088BB8FE798E3A1E08150904080
:10010000A040E1F700C000008FEF8ABF88B318BAA3
:100110007894BF91AF919F918F910F900FBE0F90E8
:080120001F901895F894FFCF21
:00000001FF
